:03000000020454A3
:0C045400787FE4F6D8FD758120020016C8
:0300030002026F87
:10026F00C0E0C0D020010302030630B402050D2008
:10027F00B402150DC3E50D64809483403A050E75E5
:10028F000D00750F00751000D202D3E50E64809437
:10029F00834003750E03E50EB40106750803750957
:1002AF0084E50EB4020675080A75098CE50EB403D1
:1002BF000675080E750910D3E50D6480947D5037CF
:1002CF00150E750D00750F00751000D202C3E50EE7
:1002DF00648094805003750E00E50EB40106750816
:1002EF0003750984E50EB4020675080A75098CE5D5
:0C02FF000E7004F508F509D0D0D0E032F4
:03000B0002030BE2
:10030B00C0E0C0D0050CE50C7002050B0512E51220
:10031B0070020511D3E50C94E8E50B94034019D357
:10032B00E5099400E50894004008E50915097002F9
:10033B001508750B00750C0020A61E30001B05144C
:10034B00E51470020513D39430E5139475400AC27B
:10035B0000C2A7751300751400C3E51094F4E50FE4
:10036B00940150080510E5107002050FD0D0D0E0B5
:01037B00324F
:030013000203C71E
:1003C700C0E0C0D075110075120020B32820010FBE
:1003D700D3E51294F4E51194014004D2018016305C
:1003E70001E8D3E51294B8E511940B40DDC201751D
:0A03F7000800750900D0D0D0E032F4
:1000160012037C200110D2A0D2A1D2A2D2A3C2A4E4
:10002600C2A6C28080ED3001EAE50E700EC2A0D2F3
:10003600A1D2A2D2A3D2A4C2A6C280E50EB4010A5E
:10004600D2A0C2A1D2A2D2A3D2A4E50EB4020AD2F1
:10005600A0D2A1C2A2D2A3D2A4E50EB4030AD2A012
:10006600D2A1D2A2C2A3D2A4D3E5099484E508946E
:1000760003400DE509948CE508940A5003750E02B9
:10008600D3E5099400E5089400400DE5099484E55C
:100096000894035003750E01E5094508701BE50E2B
:1000A600B40116C2A0D2A1D2A2D2A3D2A4C2A6C221
:1000B60080E4F50E7F0112040120020302002C20C9
:1000C600010302002CC3E51094F4E50F9401500ED1
:1000D600E50E700AC2A0D2A1D2A2D2A3D2A4C3E5D1
:1000E6001094F4E50F9401500FE50EB4010AD2A066
:1000F600C2A1D2A2D2A3D2A4C3E51094F4E50F9470
:1001060001500FE50EB4020AD2A0D2A1C2A2D2A318
:10011600D2A4C3E51094F4E50F9401500FE50EB494
:10012600030AD2A0D2A1D2A2C2A3D2A4C3E510943C
:10013600F4E50F9401403CE50E7038D2A0D2A1D26E
:10014600A2D2A3D2A4C2A0120437D2A0120437C2EC
:10015600A0120437D2A0120437C2A0120437D2A0CC
:10016600120437C2A0D2A1D2A2D2A3D2A4C2A6C2DE
:1001760080C202C3E51094F4E50F94014044E50EF5
:100186006401703ED2A0D2A1D2A2D2A3D2A4C2A1AF
:10019600120437D2A1120437C2A1120437D2A11217
:1001A6000437C2A1120437D2A1120437D2A0C2A1C9
:1001B600D2A2D2A3D2A4D2A6D2A6D2A7D280D2004D
:1001C600C202C3E51094F4E50F94014044E50E64C1
:1001D60002703ED2A0D2A1D2A2D2A3D2A4C2A212AF
:1001E6000437D2A2120437C2A2120437D2A21204D2
:1001F60037C2A2120437D2A2120437D2A0D2A1C2A9
:10020600A2D2A3D2A4D2A6D2A6D2A7D280D200C20C
:1002160002C3E51094F4E50F940150030200BFE514
:100226000E640360030200BFD2A0D2A1D2A2D2A361
:10023600D2A4C2A3120437D2A3120437C2A3120453
:1002460037D2A3120437C2A3120437D2A31204373B
:10025600D2A0D2A1D2A2C2A3D2A4D2A6D2A6D2A7FB
:09026600D280D200C2020200BFE6
:10037C007594FFE4F5937596FFF595F5B2F5B1908C
:10038C00FE13E054F7F0D2A0D2A1D2A2D2A3D2A4F1
:10039C00D2A5C2A6C2A7C280C201C200E4F50BF569
:1003AC000CF508F509F513F514F50DF50EC202124E
:0B03BC00042212000612000ED2AF2235
:10042200438E805389F0758ACD758CD4C28DD28C5F
:05043200D2A9D2B9229D
:05000600D288D2A822FF
:05000E00D28AD2AA22F3
:020401008F1555
:10040300E4F516E516C395155014C2A51204461259
:0E0413000446D2A5120446120446051680E5E2
:0104210022B8
:0D044600007F067E9D7D3BDDFEDEFCDFFAC3
:010453002286
:0F043700120446120446120446120446020446FA
:00000001FF
