:030000000202CC2D
:0C02CC00787FE4F6D8FD75812002001652
:030003000200DC1C
:1000DC00C0E0C0D075D000C006C0072001030201EB
:1000EC0085E50C7002F50EAF0EEF3395E0FEC3EF15
:1000FC0094D0EE648094874003750C0030B40205F4
:10010C000C20B402150CC3E50C64809483403205BA
:10011C000D750C00D3E50D648094834003750D03BD
:10012C00E50DB40106750803750984E50DB40206E6
:10013C0075080A75098CE50DB4030675080E75096A
:10014C0010D3E50C6480947D502F150D750C00C3F5
:10015C00E50D6480947D5003750D00E50DB401062A
:10016C00750803750984E50DB4020675080A75094E
:10017C008CE50D7004F508F509D007D006D0D0D069
:02018C00E0325F
:03000B0002018E61
:10018E00C0E0C0D075D000C006C007050BE50B70EF
:10019E0002050A0510E5107002050FD3E50B94E871
:1001AE00E50A94034019D3E5099400E5089400404C
:1001BE0008E509150970021508750A00750B00206F
:1001CE00A61E30001B0512E51270020511D39430E5
:1001DE00E5119475400AC200C2A775110075120090
:1001EE00AF0EEF3395E0FED3EF94D0EE648094879C
:0D01FE005002050ED007D006D0D0D0E03260
:0300130002025492
:10025400C0E0C0D0750F0075100020B32820010F36
:10026400D3E51094F4E50F94014004D201801630D4
:1002740001E8D3E51094B8E50F940B40DDC2017595
:0A0284000800750900D0D0D0E03268
:1000160012020B3001FDC2A0C2A1C2A2C2A3C2A499
:100026007F0112028EE509450860FA2001030200ED
:10003600C6D3E5099400E5089400401FD3E509946A
:1000460084E50894035014D2A0C2A1D2A2D2A3D2AE
:10005600A4D2A6D280D2A7D20080D6D3E5099484B2
:10006600E5089403401FD3E509948CE508940A50EB
:1000760014D2A0D2A1C2A2D2A3D2A4D2A6D280D296
:10008600A7D20080D6D3E509948CE508940A4014DB
:10009600D2A0D2A1D2A2C2A3D2A4D2A6D280D2A7E3
:1000A600D20080E1E5094508708120010302003194
:1000B600C2A0D2A1D2A2D2A3D2A4C2A6C28080E4F8
:1000C600D2A0D2A1D2A2D2A3D2A4C2A6C2807F01BC
:0600D60012028E02001967
:10020B007594FFE4F5937596FFF595F5B2F5B190FE
:10021B00FE13E054F7F0D2A0D2A1D2A2D2A3D2A463
:10022B00D2A5C2A6C2A7C280C201C200E4F50AF5DC
:10023B000BF508F509F511F512F50CF50D1202A9E0
:09024B0012000612000ED2AF22CF
:1002A900438E805389F0758ACD758CD4C28DD28CDA
:0502B900D2A9D2B92218
:05000600D288D2A822FF
:05000E00D28AD2AA22F3
:02028E008F13CC
:10029000E4F514E514C39513500EC2A51202BED2A4
:0802A000A51202BE051480EB5B
:0102A8002233
:0D02BE00007F067E9D7D3BDDFEDEFCDFFA4D
:0102CB002210
:00000001FF
